{
    "contractName": "Surveys",
    "abi": [
        {
            "inputs": [
                {
                    "internalType": "bytes32",
                    "name": "_a",
                    "type": "bytes32"
                },
                {
                    "internalType": "bytes32",
                    "name": "_b",
                    "type": "bytes32"
                }
            ],
            "name": "createHash",
            "outputs": [
                {
                    "internalType": "bytes32",
                    "name": "",
                    "type": "bytes32"
                }
            ],
            "stateMutability": "pure",
            "type": "function"
        },
        {
            "inputs": [
                {
                    "internalType": "bytes32",
                    "name": "_surveyId",
                    "type": "bytes32"
                }
            ],
            "name": "createSurvey",
            "outputs": [],
            "stateMutability": "payable",
            "type": "function"
        },
        {
            "inputs": [],
            "name": "getBadgesOfAddress",
            "outputs": [
                {
                    "internalType": "contract Badge[]",
                    "name": "",
                    "type": "address[]"
                }
            ],
            "stateMutability": "view",
            "type": "function"
        },
        {
            "inputs": [
                {
                    "internalType": "bytes32",
                    "name": "_surveyId",
                    "type": "bytes32"
                }
            ],
            "name": "getSurveyAuthor",
            "outputs": [
                {
                    "internalType": "address",
                    "name": "",
                    "type": "address"
                }
            ],
            "stateMutability": "view",
            "type": "function"
        },
        {
            "inputs": [],
            "name": "getSurveysAnsweredByAddress",
            "outputs": [
                {
                    "internalType": "bytes32[]",
                    "name": "",
                    "type": "bytes32[]"
                }
            ],
            "stateMutability": "view",
            "type": "function"
        },
        {
            "inputs": [],
            "name": "getSurveysCreatedByAddress",
            "outputs": [
                {
                    "internalType": "bytes32[]",
                    "name": "",
                    "type": "bytes32[]"
                }
            ],
            "stateMutability": "view",
            "type": "function"
        },
        {
            "inputs": [
                {
                    "internalType": "bytes32",
                    "name": "_surveyId",
                    "type": "bytes32"
                },
                {
                    "internalType": "bytes32",
                    "name": "_responseHash",
                    "type": "bytes32"
                }
            ],
            "name": "takeSurvey",
            "outputs": [],
            "stateMutability": "nonpayable",
            "type": "function"
        }
    ],
    "bytecode": "608060405234801561001057600080fd5b50612049806100206000396000f3fe6080604052600436106100705760003560e01c80639b70d2f31161004e5780639b70d2f31461013f578063a6adf3bd14610161578063a85ed9dd14610183578063c654df061461019857600080fd5b806313ddfbc0146100755780632b82b9a9146100c8578063451a58e31461011d575b600080fd5b34801561008157600080fd5b506100ab6100903660046106b2565b6000908152600160205260409020546001600160a01b031690565b6040516001600160a01b0390911681526020015b60405180910390f35b3480156100d457600080fd5b5061010f6100e33660046106cb565b604080516020808201949094528082019290925280518083038201815260609092019052805191012090565b6040519081526020016100bf565b34801561012957600080fd5b506101326101e6565b6040516100bf91906106ed565b34801561014b57600080fd5b5061015f61015a3660046106cb565b610247565b005b34801561016d57600080fd5b5061017661043f565b6040516100bf9190610731565b34801561018f57600080fd5b50610132610648565b61015f6101a63660046106b2565b33600081815260208181526040808320805460018181018355918552838520018690559483529390529190912080546001600160a01b0319169091179055565b3360009081526002602090815260409182902080548351818402810184019094528084526060939283018282801561023d57602002820191906000526020600020905b815481526020019060010190808311610229575b5050505050905090565b6000828152600160205260409020546001600160a01b03166102a75760405162461bcd60e51b815260206004820152601560248201527414dd5c9d995e48191bd95cc81b9bdd08195e1a5cdd605a1b604482015260640160405180910390fd5b60008281526003602090815260408083208054600181810183559185528385200185905533845260028352818420805491820181558452918320909101849055516102f1906106a5565b604051809103906000f08015801561030d573d6000803e3d6000fd5b509050806001600160a01b0316639d246cce336103518686604080516020808201949094528082019290925280518083038201815260609092019052805191012090565b60405160e084901b6001600160e01b03191681526001600160a01b0390921660048301526024820152604401600060405180830381600087803b15801561039757600080fd5b505af11580156103ab573d6000803e3d6000fd5b505033600081815260046020908152604080832080546001810182559084528284200180546001600160a01b0319166001600160a01b0389161790559282526005905220915061042490508484604080516020808201949094528082019290925280518083038201815260609092019052805191012090565b81546001810183556000928352602090922090910155505050565b33600090815260046020908152604080832080548251818502810185019093528083526060949383018282801561049f57602002820191906000526020600020905b81546001600160a01b03168152600190910190602001808311610481575b505050505090506000815167ffffffffffffffff8111156104c2576104c2610772565b6040519080825280602002602001820160405280156104eb578160200160208202803683370190505b5090506000805b835181101561063f57336001600160a01b031684828151811061051757610517610788565b60200260200101516001600160a01b0316636352211e60056000336001600160a01b03166001600160a01b03168152602001908152602001600020848154811061056357610563610788565b90600052602060002001546040518263ffffffff1660e01b815260040161058c91815260200190565b602060405180830381865afa1580156105a9573d6000803e3d6000fd5b505050506040513d601f19601f820116820180604052508101906105cd919061079e565b6001600160a01b03160361062d578381815181106105ed576105ed610788565b602002602001015183838151811061060757610607610788565b6001600160a01b039092166020928302919091019091015281610629816107ce565b9250505b80610637816107ce565b9150506104f2565b50909392505050565b336000908152602081815260409182902080548351818402810184019094528084526060939283018282801561023d5760200282019190600052602060002090815481526020019060010190808311610229575050505050905090565b61181e806107f683390190565b6000602082840312156106c457600080fd5b5035919050565b600080604083850312156106de57600080fd5b50508035926020909101359150565b6020808252825182820181905260009190848201906040850190845b8181101561072557835183529284019291840191600101610709565b50909695505050505050565b6020808252825182820181905260009190848201906040850190845b818110156107255783516001600160a01b03168352928401929184019160010161074d565b634e487b7160e01b600052604160045260246000fd5b634e487b7160e01b600052603260045260246000fd5b6000602082840312156107b057600080fd5b81516001600160a01b03811681146107c757600080fd5b9392505050565b6000600182016107ee57634e487b7160e01b600052601160045260246000fd5b506001019056fe60806040523480156200001157600080fd5b506040518060400160405280600a8152602001692130b233b2aa37b5b2b760b11b8152506040518060400160405280600381526020016242444760e81b81525081600090816200006291906200018f565b5060016200007182826200018f565b5050506200008e620000886200009460201b60201c565b62000098565b6200025b565b3390565b600680546001600160a01b038381166001600160a01b0319831681179093556040519116919082907f8be0079c531659141344cd1fd0a4f28419497f9722a3daafe3b4186f6b6457e090600090a35050565b634e487b7160e01b600052604160045260246000fd5b600181811c908216806200011557607f821691505b6020821081036200013657634e487b7160e01b600052602260045260246000fd5b50919050565b601f8211156200018a57600081815260208120601f850160051c81016020861015620001655750805b601f850160051c820191505b81811015620001865782815560010162000171565b5050505b505050565b81516001600160401b03811115620001ab57620001ab620000ea565b620001c381620001bc845462000100565b846200013c565b602080601f831160018114620001fb5760008415620001e25750858301515b600019600386901b1c1916600185901b17855562000186565b600085815260208120601f198616915b828110156200022c578886015182559484019460019091019084016200020b565b50858210156200024b5787850151600019600388901b60f8161c191681555b5050505050600190811b01905550565b6115b3806200026b6000396000f3fe608060405234801561001057600080fd5b50600436106101165760003560e01c8063715018a6116100a2578063a22cb46511610071578063a22cb46514610239578063b88d4fde1461024c578063c87b56dd1461025f578063e985e9c514610272578063f2fde38b146102ae57600080fd5b8063715018a6146102055780638da5cb5b1461020d57806395d89b411461021e5780639d246cce1461022657600080fd5b806323b872dd116100e957806323b872dd1461019857806342842e0e146101ab57806342966c68146101be5780636352211e146101d157806370a08231146101e457600080fd5b806301ffc9a71461011b57806306fdde0314610143578063081812fc14610158578063095ea7b314610183575b600080fd5b61012e61012936600461113f565b6102c1565b60405190151581526020015b60405180910390f35b61014b610313565b60405161013a91906111ac565b61016b6101663660046111bf565b6103a5565b6040516001600160a01b03909116815260200161013a565b6101966101913660046111f4565b6103cc565b005b6101966101a636600461121e565b6104e6565b6101966101b936600461121e565b610517565b6101966101cc3660046111bf565b610532565b61016b6101df3660046111bf565b61059e565b6101f76101f236600461125a565b6105fe565b60405190815260200161013a565b610196610684565b6006546001600160a01b031661016b565b61014b610698565b6101966102343660046111f4565b6106a7565b610196610247366004611275565b6106bd565b61019661025a3660046112c7565b6106c8565b61014b61026d3660046111bf565b610700565b61012e6102803660046113a3565b6001600160a01b03918216600090815260056020908152604080832093909416825291909152205460ff1690565b6101966102bc36600461125a565b610774565b60006001600160e01b031982166380ac58cd60e01b14806102f257506001600160e01b03198216635b5e139f60e01b145b8061030d57506301ffc9a760e01b6001600160e01b03198316145b92915050565b606060008054610322906113d6565b80601f016020809104026020016040519081016040528092919081815260200182805461034e906113d6565b801561039b5780601f106103705761010080835404028352916020019161039b565b820191906000526020600020905b81548152906001019060200180831161037e57829003601f168201915b5050505050905090565b60006103b0826107ea565b506000908152600460205260409020546001600160a01b031690565b60006103d78261059e565b9050806001600160a01b0316836001600160a01b0316036104495760405162461bcd60e51b815260206004820152602160248201527f4552433732313a20617070726f76616c20746f2063757272656e74206f776e656044820152603960f91b60648201526084015b60405180910390fd5b336001600160a01b038216148061046557506104658133610280565b6104d75760405162461bcd60e51b815260206004820152603d60248201527f4552433732313a20617070726f76652063616c6c6572206973206e6f7420746f60448201527f6b656e206f776e6572206f7220617070726f76656420666f7220616c6c0000006064820152608401610440565b6104e18383610849565b505050565b6104f033826108b7565b61050c5760405162461bcd60e51b815260040161044090611410565b6104e1838383610936565b6104e1838383604051806020016040528060008152506106c8565b3361053c8261059e565b6001600160a01b0316146105925760405162461bcd60e51b815260206004820152601f60248201527f4552433732313a2063616c6c6572206973206e6f7420746865206f776e6572006044820152606401610440565b61059b81610a9a565b50565b6000818152600260205260408120546001600160a01b03168061030d5760405162461bcd60e51b8152602060048201526018602482015277115490cdcc8c4e881a5b9d985b1a59081d1bdad95b88125160421b6044820152606401610440565b60006001600160a01b0382166106685760405162461bcd60e51b815260206004820152602960248201527f4552433732313a2061646472657373207a65726f206973206e6f7420612076616044820152683634b21037bbb732b960b91b6064820152608401610440565b506001600160a01b031660009081526003602052604090205490565b61068c610aa3565b6106966000610afd565b565b606060018054610322906113d6565b6106af610aa3565b6106b98282610b4f565b5050565b6106b9338383610b69565b6106d233836108b7565b6106ee5760405162461bcd60e51b815260040161044090611410565b6106fa84848484610c37565b50505050565b606061070b826107ea565b600061072260408051602081019091526000815290565b90506000815111610742576040518060200160405280600081525061076d565b8061074c84610c6a565b60405160200161075d92919061145d565b6040516020818303038152906040525b9392505050565b61077c610aa3565b6001600160a01b0381166107e15760405162461bcd60e51b815260206004820152602660248201527f4f776e61626c653a206e6577206f776e657220697320746865207a65726f206160448201526564647265737360d01b6064820152608401610440565b61059b81610afd565b6000818152600260205260409020546001600160a01b031661059b5760405162461bcd60e51b8152602060048201526018602482015277115490cdcc8c4e881a5b9d985b1a59081d1bdad95b88125160421b6044820152606401610440565b600081815260046020526040902080546001600160a01b0319166001600160a01b038416908117909155819061087e8261059e565b6001600160a01b03167f8c5be1e5ebec7d5bd14f71427d1e84f3dd0314c0f7b2291e5b200ac8c7c3b92560405160405180910390a45050565b6000806108c38361059e565b9050806001600160a01b0316846001600160a01b0316148061090a57506001600160a01b0380821660009081526005602090815260408083209388168352929052205460ff165b8061092e5750836001600160a01b0316610923846103a5565b6001600160a01b0316145b949350505050565b826001600160a01b03166109498261059e565b6001600160a01b03161461096f5760405162461bcd60e51b81526004016104409061148c565b6001600160a01b0382166109d15760405162461bcd60e51b8152602060048201526024808201527f4552433732313a207472616e7366657220746f20746865207a65726f206164646044820152637265737360e01b6064820152608401610440565b826001600160a01b03166109e48261059e565b6001600160a01b031614610a0a5760405162461bcd60e51b81526004016104409061148c565b600081815260046020908152604080832080546001600160a01b03199081169091556001600160a01b0387811680865260038552838620805460001901905590871680865283862080546001019055868652600290945282852080549092168417909155905184937fddf252ad1be2c89b69c2b068fc378daa952ba7f163c4a11628f55a4df523b3ef91a4505050565b61059b81610cfd565b6006546001600160a01b031633146106965760405162461bcd60e51b815260206004820181905260248201527f4f776e61626c653a2063616c6c6572206973206e6f7420746865206f776e65726044820152606401610440565b600680546001600160a01b038381166001600160a01b0319831681179093556040519116919082907f8be0079c531659141344cd1fd0a4f28419497f9722a3daafe3b4186f6b6457e090600090a35050565b6106b9828260405180602001604052806000815250610d92565b816001600160a01b0316836001600160a01b031603610bca5760405162461bcd60e51b815260206004820152601960248201527f4552433732313a20617070726f766520746f2063616c6c6572000000000000006044820152606401610440565b6001600160a01b03838116600081815260056020908152604080832094871680845294825291829020805460ff191686151590811790915591519182527f17307eab39ab6107e8899845ad3d59bd9653f200f220920489ca2b5937696c31910160405180910390a3505050565b610c42848484610936565b610c4e84848484610dc5565b6106fa5760405162461bcd60e51b8152600401610440906114d1565b60606000610c7783610ec6565b600101905060008167ffffffffffffffff811115610c9757610c976112b1565b6040519080825280601f01601f191660200182016040528015610cc1576020820181803683370190505b5090508181016020015b600019016f181899199a1a9b1b9c1cb0b131b232b360811b600a86061a8153600a8504945084610ccb57509392505050565b6000610d088261059e565b9050610d138261059e565b600083815260046020908152604080832080546001600160a01b03199081169091556001600160a01b0385168085526003845282852080546000190190558785526002909352818420805490911690555192935084927fddf252ad1be2c89b69c2b068fc378daa952ba7f163c4a11628f55a4df523b3ef908390a45050565b610d9c8383610f9e565b610da96000848484610dc5565b6104e15760405162461bcd60e51b8152600401610440906114d1565b60006001600160a01b0384163b15610ebb57604051630a85bd0160e11b81526001600160a01b0385169063150b7a0290610e09903390899088908890600401611523565b6020604051808303816000875af1925050508015610e44575060408051601f3d908101601f19168201909252610e4191810190611560565b60015b610ea1573d808015610e72576040519150601f19603f3d011682016040523d82523d6000602084013e610e77565b606091505b508051600003610e995760405162461bcd60e51b8152600401610440906114d1565b805181602001fd5b6001600160e01b031916630a85bd0160e11b14905061092e565b506001949350505050565b60008072184f03e93ff9f4daa797ed6e38ed64bf6a1f0160401b8310610f055772184f03e93ff9f4daa797ed6e38ed64bf6a1f0160401b830492506040015b6d04ee2d6d415b85acef81000000008310610f31576d04ee2d6d415b85acef8100000000830492506020015b662386f26fc100008310610f4f57662386f26fc10000830492506010015b6305f5e1008310610f67576305f5e100830492506008015b6127108310610f7b57612710830492506004015b60648310610f8d576064830492506002015b600a831061030d5760010192915050565b6001600160a01b038216610ff45760405162461bcd60e51b815260206004820181905260248201527f4552433732313a206d696e7420746f20746865207a65726f20616464726573736044820152606401610440565b6000818152600260205260409020546001600160a01b0316156110595760405162461bcd60e51b815260206004820152601c60248201527f4552433732313a20746f6b656e20616c7265616479206d696e746564000000006044820152606401610440565b6000818152600260205260409020546001600160a01b0316156110be5760405162461bcd60e51b815260206004820152601c60248201527f4552433732313a20746f6b656e20616c7265616479206d696e746564000000006044820152606401610440565b6001600160a01b038216600081815260036020908152604080832080546001019055848352600290915280822080546001600160a01b0319168417905551839291907fddf252ad1be2c89b69c2b068fc378daa952ba7f163c4a11628f55a4df523b3ef908290a45050565b6001600160e01b03198116811461059b57600080fd5b60006020828403121561115157600080fd5b813561076d81611129565b60005b8381101561117757818101518382015260200161115f565b50506000910152565b6000815180845261119881602086016020860161115c565b601f01601f19169290920160200192915050565b60208152600061076d6020830184611180565b6000602082840312156111d157600080fd5b5035919050565b80356001600160a01b03811681146111ef57600080fd5b919050565b6000806040838503121561120757600080fd5b611210836111d8565b946020939093013593505050565b60008060006060848603121561123357600080fd5b61123c846111d8565b925061124a602085016111d8565b9150604084013590509250925092565b60006020828403121561126c57600080fd5b61076d826111d8565b6000806040838503121561128857600080fd5b611291836111d8565b9150602083013580151581146112a657600080fd5b809150509250929050565b634e487b7160e01b600052604160045260246000fd5b600080600080608085870312156112dd57600080fd5b6112e6856111d8565b93506112f4602086016111d8565b925060408501359150606085013567ffffffffffffffff8082111561131857600080fd5b818701915087601f83011261132c57600080fd5b81358181111561133e5761133e6112b1565b604051601f8201601f19908116603f01168101908382118183101715611366576113666112b1565b816040528281528a602084870101111561137f57600080fd5b82602086016020830137600060208483010152809550505050505092959194509250565b600080604083850312156113b657600080fd5b6113bf836111d8565b91506113cd602084016111d8565b90509250929050565b600181811c908216806113ea57607f821691505b60208210810361140a57634e487b7160e01b600052602260045260246000fd5b50919050565b6020808252602d908201527f4552433732313a2063616c6c6572206973206e6f7420746f6b656e206f776e6560408201526c1c881bdc88185c1c1c9bdd9959609a1b606082015260800190565b6000835161146f81846020880161115c565b83519083019061148381836020880161115c565b01949350505050565b60208082526025908201527f4552433732313a207472616e736665722066726f6d20696e636f72726563742060408201526437bbb732b960d91b606082015260800190565b60208082526032908201527f4552433732313a207472616e7366657220746f206e6f6e20455243373231526560408201527131b2b4bb32b91034b6b83632b6b2b73a32b960711b606082015260800190565b6001600160a01b038581168252841660208201526040810183905260806060820181905260009061155690830184611180565b9695505050505050565b60006020828403121561157257600080fd5b815161076d8161112956fea2646970667358221220961b01c294aecd468abcbd214ad5c3ac0b110aaf3df06c275023048c40f3fdb364736f6c63430008130033a2646970667358221220efbebd9a66e3e6bc711d8b9e8ef2672e5d4771680e3ca4c8be7be8300074bfa264736f6c63430008130033",
    "sourcePath": "/home/drleo/Projects/hackathons/hedera/smart-contracts/contracts/Surveys.sol",
    "compiler": {
        "name": "solc",
        "version": "0.8.19+commit.7dd6d404"
    },
    "functionHashes": {
        "createHash(bytes32,bytes32)": "2b82b9a9",
        "createSurvey(bytes32)": "c654df06",
        "getBadgesOfAddress()": "a6adf3bd",
        "getSurveyAuthor(bytes32)": "13ddfbc0",
        "getSurveysAnsweredByAddress()": "451a58e3",
        "getSurveysCreatedByAddress()": "a85ed9dd",
        "takeSurvey(bytes32,bytes32)": "9b70d2f3"
    },
    "gasEstimates": {
        "creation": {
            "codeDepositCost": "1653000",
            "executionCost": "1736",
            "totalCost": "1654736"
        },
        "external": {
            "createHash(bytes32,bytes32)": "477",
            "createSurvey(bytes32)": "71011",
            "getBadgesOfAddress()": "infinite",
            "getSurveyAuthor(bytes32)": "2467",
            "getSurveysAnsweredByAddress()": "infinite",
            "getSurveysCreatedByAddress()": "infinite",
            "takeSurvey(bytes32,bytes32)": "infinite"
        }
    }
}