{
    "contractName": "Surveys",
    "abi": [
        {
            "inputs": [
                {
                    "internalType": "address",
                    "name": "_operatorAccountAddresss",
                    "type": "address"
                }
            ],
            "stateMutability": "nonpayable",
            "type": "constructor"
        },
        {
            "anonymous": false,
            "inputs": [
                {
                    "indexed": false,
                    "internalType": "bool",
                    "name": "",
                    "type": "bool"
                },
                {
                    "indexed": false,
                    "internalType": "bytes",
                    "name": "",
                    "type": "bytes"
                }
            ],
            "name": "CallResponseEvent",
            "type": "event"
        },
        {
            "anonymous": false,
            "inputs": [
                {
                    "indexed": false,
                    "internalType": "bool",
                    "name": "send",
                    "type": "bool"
                },
                {
                    "indexed": false,
                    "internalType": "bytes",
                    "name": "data",
                    "type": "bytes"
                }
            ],
            "name": "Response",
            "type": "event"
        },
        {
            "inputs": [
                {
                    "internalType": "address",
                    "name": "_token",
                    "type": "address"
                },
                {
                    "internalType": "uint256",
                    "name": "_serialNumber",
                    "type": "uint256"
                }
            ],
            "name": "approveNft",
            "outputs": [
                {
                    "internalType": "int256",
                    "name": "responseCode",
                    "type": "int256"
                }
            ],
            "stateMutability": "nonpayable",
            "type": "function"
        },
        {
            "inputs": [
                {
                    "internalType": "bytes32",
                    "name": "_a",
                    "type": "bytes32"
                },
                {
                    "internalType": "bytes32",
                    "name": "_b",
                    "type": "bytes32"
                }
            ],
            "name": "createHash",
            "outputs": [
                {
                    "internalType": "bytes32",
                    "name": "",
                    "type": "bytes32"
                }
            ],
            "stateMutability": "pure",
            "type": "function"
        },
        {
            "inputs": [
                {
                    "internalType": "string",
                    "name": "name",
                    "type": "string"
                },
                {
                    "internalType": "string",
                    "name": "symbol",
                    "type": "string"
                },
                {
                    "internalType": "string",
                    "name": "memo",
                    "type": "string"
                },
                {
                    "internalType": "int64",
                    "name": "maxSupply",
                    "type": "int64"
                },
                {
                    "internalType": "int64",
                    "name": "autoRenewPeriod",
                    "type": "int64"
                }
            ],
            "name": "createNft",
            "outputs": [
                {
                    "internalType": "address",
                    "name": "",
                    "type": "address"
                }
            ],
            "stateMutability": "payable",
            "type": "function"
        },
        {
            "inputs": [
                {
                    "internalType": "bytes32",
                    "name": "surveyHash",
                    "type": "bytes32"
                }
            ],
            "name": "getAnswerForSurvey",
            "outputs": [
                {
                    "components": [
                        {
                            "internalType": "bytes32",
                            "name": "surveyHash",
                            "type": "bytes32"
                        },
                        {
                            "internalType": "bytes32",
                            "name": "answerHash",
                            "type": "bytes32"
                        },
                        {
                            "internalType": "address",
                            "name": "userAddress",
                            "type": "address"
                        },
                        {
                            "internalType": "int64",
                            "name": "nftSerial",
                            "type": "int64"
                        }
                    ],
                    "internalType": "struct Surveys.Answer[]",
                    "name": "",
                    "type": "tuple[]"
                }
            ],
            "stateMutability": "view",
            "type": "function"
        },
        {
            "inputs": [],
            "name": "getAnswers",
            "outputs": [
                {
                    "components": [
                        {
                            "internalType": "bytes32",
                            "name": "surveyHash",
                            "type": "bytes32"
                        },
                        {
                            "internalType": "bytes32",
                            "name": "answerHash",
                            "type": "bytes32"
                        },
                        {
                            "internalType": "address",
                            "name": "userAddress",
                            "type": "address"
                        },
                        {
                            "internalType": "int64",
                            "name": "nftSerial",
                            "type": "int64"
                        }
                    ],
                    "internalType": "struct Surveys.Answer[]",
                    "name": "",
                    "type": "tuple[]"
                }
            ],
            "stateMutability": "view",
            "type": "function"
        },
        {
            "inputs": [
                {
                    "internalType": "address",
                    "name": "token",
                    "type": "address"
                },
                {
                    "internalType": "uint256",
                    "name": "tokenId",
                    "type": "uint256"
                }
            ],
            "name": "getApprovedNft",
            "outputs": [
                {
                    "internalType": "address",
                    "name": "",
                    "type": "address"
                }
            ],
            "stateMutability": "view",
            "type": "function"
        },
        {
            "inputs": [],
            "name": "getAuthorSurveys",
            "outputs": [
                {
                    "components": [
                        {
                            "internalType": "bytes32",
                            "name": "surveyHash",
                            "type": "bytes32"
                        },
                        {
                            "internalType": "address",
                            "name": "author",
                            "type": "address"
                        },
                        {
                            "internalType": "address",
                            "name": "nftAddress",
                            "type": "address"
                        }
                    ],
                    "internalType": "struct Surveys.Survey[]",
                    "name": "",
                    "type": "tuple[]"
                }
            ],
            "stateMutability": "view",
            "type": "function"
        },
        {
            "inputs": [],
            "name": "getBalance",
            "outputs": [
                {
                    "internalType": "uint256",
                    "name": "",
                    "type": "uint256"
                }
            ],
            "stateMutability": "view",
            "type": "function"
        },
        {
            "inputs": [
                {
                    "internalType": "bytes32",
                    "name": "surveyHash",
                    "type": "bytes32"
                }
            ],
            "name": "getNftAddressForSurveyHash",
            "outputs": [
                {
                    "internalType": "address",
                    "name": "",
                    "type": "address"
                }
            ],
            "stateMutability": "view",
            "type": "function"
        },
        {
            "inputs": [
                {
                    "internalType": "uint256",
                    "name": "_i",
                    "type": "uint256"
                }
            ],
            "name": "getSurvey",
            "outputs": [
                {
                    "components": [
                        {
                            "internalType": "bytes32",
                            "name": "surveyHash",
                            "type": "bytes32"
                        },
                        {
                            "internalType": "address",
                            "name": "author",
                            "type": "address"
                        },
                        {
                            "internalType": "address",
                            "name": "nftAddress",
                            "type": "address"
                        }
                    ],
                    "internalType": "struct Surveys.Survey",
                    "name": "",
                    "type": "tuple"
                }
            ],
            "stateMutability": "view",
            "type": "function"
        },
        {
            "inputs": [],
            "name": "getSurveys",
            "outputs": [
                {
                    "components": [
                        {
                            "internalType": "bytes32",
                            "name": "surveyHash",
                            "type": "bytes32"
                        },
                        {
                            "internalType": "address",
                            "name": "author",
                            "type": "address"
                        },
                        {
                            "internalType": "address",
                            "name": "nftAddress",
                            "type": "address"
                        }
                    ],
                    "internalType": "struct Surveys.Survey[]",
                    "name": "",
                    "type": "tuple[]"
                }
            ],
            "stateMutability": "view",
            "type": "function"
        },
        {
            "inputs": [],
            "name": "getUserAnswers",
            "outputs": [
                {
                    "components": [
                        {
                            "internalType": "bytes32",
                            "name": "surveyHash",
                            "type": "bytes32"
                        },
                        {
                            "internalType": "bytes32",
                            "name": "answerHash",
                            "type": "bytes32"
                        },
                        {
                            "internalType": "address",
                            "name": "userAddress",
                            "type": "address"
                        },
                        {
                            "internalType": "int64",
                            "name": "nftSerial",
                            "type": "int64"
                        }
                    ],
                    "internalType": "struct Surveys.Answer[]",
                    "name": "",
                    "type": "tuple[]"
                }
            ],
            "stateMutability": "view",
            "type": "function"
        },
        {
            "inputs": [
                {
                    "internalType": "address",
                    "name": "token",
                    "type": "address"
                },
                {
                    "internalType": "bytes[]",
                    "name": "metadata",
                    "type": "bytes[]"
                }
            ],
            "name": "mintNft",
            "outputs": [
                {
                    "internalType": "int64",
                    "name": "",
                    "type": "int64"
                }
            ],
            "stateMutability": "payable",
            "type": "function"
        },
        {
            "inputs": [
                {
                    "internalType": "address",
                    "name": "token",
                    "type": "address"
                }
            ],
            "name": "nameOfNft",
            "outputs": [
                {
                    "internalType": "string",
                    "name": "",
                    "type": "string"
                }
            ],
            "stateMutability": "view",
            "type": "function"
        },
        {
            "inputs": [
                {
                    "internalType": "address",
                    "name": "token",
                    "type": "address"
                },
                {
                    "internalType": "uint256",
                    "name": "tokenId",
                    "type": "uint256"
                }
            ],
            "name": "ownerOfNft",
            "outputs": [
                {
                    "internalType": "address",
                    "name": "",
                    "type": "address"
                }
            ],
            "stateMutability": "view",
            "type": "function"
        },
        {
            "inputs": [
                {
                    "internalType": "address",
                    "name": "token",
                    "type": "address"
                },
                {
                    "internalType": "bytes",
                    "name": "encodedFunctionSelector",
                    "type": "bytes"
                }
            ],
            "name": "redirectForToken",
            "outputs": [],
            "stateMutability": "nonpayable",
            "type": "function"
        },
        {
            "inputs": [
                {
                    "internalType": "bytes32",
                    "name": "surveyHash",
                    "type": "bytes32"
                },
                {
                    "internalType": "bytes32",
                    "name": "answerHash",
                    "type": "bytes32"
                },
                {
                    "internalType": "bytes[]",
                    "name": "metadata",
                    "type": "bytes[]"
                }
            ],
            "name": "setAnswer",
            "outputs": [
                {
                    "internalType": "bool",
                    "name": "",
                    "type": "bool"
                }
            ],
            "stateMutability": "payable",
            "type": "function"
        },
        {
            "inputs": [
                {
                    "internalType": "bytes32",
                    "name": "_surveyHash",
                    "type": "bytes32"
                }
            ],
            "name": "setSurvey",
            "outputs": [
                {
                    "internalType": "bool",
                    "name": "",
                    "type": "bool"
                }
            ],
            "stateMutability": "payable",
            "type": "function"
        },
        {
            "inputs": [
                {
                    "internalType": "address",
                    "name": "token",
                    "type": "address"
                }
            ],
            "name": "symbolOfNft",
            "outputs": [
                {
                    "internalType": "string",
                    "name": "",
                    "type": "string"
                }
            ],
            "stateMutability": "view",
            "type": "function"
        },
        {
            "inputs": [
                {
                    "internalType": "address",
                    "name": "token",
                    "type": "address"
                },
                {
                    "internalType": "uint256",
                    "name": "tokenId",
                    "type": "uint256"
                }
            ],
            "name": "tokenURIOfNft",
            "outputs": [
                {
                    "internalType": "string",
                    "name": "",
                    "type": "string"
                }
            ],
            "stateMutability": "view",
            "type": "function"
        },
        {
            "inputs": [
                {
                    "internalType": "address",
                    "name": "token",
                    "type": "address"
                },
                {
                    "internalType": "address",
                    "name": "from",
                    "type": "address"
                },
                {
                    "internalType": "address",
                    "name": "to",
                    "type": "address"
                },
                {
                    "internalType": "uint256",
                    "name": "amount",
                    "type": "uint256"
                }
            ],
            "name": "transferFrom",
            "outputs": [
                {
                    "internalType": "int64",
                    "name": "responseCode",
                    "type": "int64"
                }
            ],
            "stateMutability": "nonpayable",
            "type": "function"
        },
        {
            "inputs": [
                {
                    "internalType": "address",
                    "name": "token",
                    "type": "address"
                },
                {
                    "internalType": "address",
                    "name": "from",
                    "type": "address"
                },
                {
                    "internalType": "address",
                    "name": "to",
                    "type": "address"
                },
                {
                    "internalType": "uint256",
                    "name": "serialNumber",
                    "type": "uint256"
                }
            ],
            "name": "transferFromNFT",
            "outputs": [
                {
                    "internalType": "int64",
                    "name": "responseCode",
                    "type": "int64"
                }
            ],
            "stateMutability": "nonpayable",
            "type": "function"
        },
        {
            "inputs": [
                {
                    "internalType": "address",
                    "name": "_token",
                    "type": "address"
                },
                {
                    "internalType": "int64",
                    "name": "_serial",
                    "type": "int64"
                }
            ],
            "name": "transferNft",
            "outputs": [
                {
                    "internalType": "int256",
                    "name": "",
                    "type": "int256"
                }
            ],
            "stateMutability": "payable",
            "type": "function"
        }
    ],
    "bytecode": "60806040523480156200001157600080fd5b50604051620026eb380380620026eb833981016040819052620000349162000164565b600160208181527fa6eef7e35abe7026729641147f7915573c7e97b47efa546f5f6e3230263bcb499190915560027fcc69885fda6bcc1a4ace058b4a62bf5e179ea78fd58a1ccd71c22cc9b688792f81905560047fd9d16d34ffb15ba3a3d852f0d403e2ce1d691fb54de27ac87cd2f993f3ec330f5560087f7dfe757ecd65cbd7922a9c0161e935dd7fdbcc0e999689c7d31633896b1fc60b5560107fedc95719e9a3b28dd8e80877cb5880a9be7de1a13fc8b05e7999683b6b567643557fe2689cd4a84e23ad2f564004f1c9013e9589d260bde6380aba3ca7e09e4df40c91909155600660005260407f8f331abe73332f95a25873e8b430885974c0409691f89d643119a11623a7924a5580546001600160a01b0319166001600160a01b039290921691909117905562000196565b6000602082840312156200017757600080fd5b81516001600160a01b03811681146200018f57600080fd5b9392505050565b61254580620001a66000396000f3fe6080604052600436106101405760003560e01c80639524d316116100b6578063c793fcf91161006f578063c793fcf9146103b7578063cb417cc2146103cc578063cd7c253e146103ec578063ce25e972146103ff578063ce5cb1c61461041f578063ea03b4d71461043257600080fd5b80639524d316146103005780639b23d3d914610322578063a6cdbdcd14610342578063b6c907a61461036f578063c2e298c114610382578063c4b5fc271461039757600080fd5b8063618dc65e11610108578063618dc65e146102175780637dec82961461023957806389670e151461025b578063899b7898146102885780638bf3a32e146102a857806394496cba146102e057600080fd5b80630a284cb61461014557806312065fe01461017057806315dacbea1461018d5780632b82b9a9146101ad57806330f5ed82146101f4575b600080fd5b610158610153366004611c0f565b610452565b60405160079190910b81526020015b60405180910390f35b34801561017c57600080fd5b50475b604051908152602001610167565b34801561019957600080fd5b506101586101a8366004611c5e565b6104f0565b3480156101b957600080fd5b5061017f6101c8366004611caf565b604080516020808201949094528082019290925280518083038201815260609092019052805191012090565b610207610202366004611cd1565b6105e4565b6040519015158152602001610167565b34801561022357600080fd5b50610237610232366004611d20565b610717565b005b34801561024557600080fd5b5061024e610805565b6040516101679190611d65565b34801561026757600080fd5b5061027b610276366004611dd6565b61088c565b6040516101679190611def565b34801561029457600080fd5b5061017f6102a3366004611e20565b610908565b3480156102b457600080fd5b506102c86102c3366004611e20565b610975565b6040516001600160a01b039091168152602001610167565b3480156102ec57600080fd5b506102c86102fb366004611dd6565b6109e9565b34801561030c57600080fd5b50610315610a70565b6040516101679190611e4c565b34801561032e57600080fd5b5061015861033d366004611c5e565b610be1565b34801561034e57600080fd5b5061036261035d366004611ebc565b610c26565b6040516101679190611f29565b6102c861037d366004611f4b565b610c8e565b34801561038e57600080fd5b5061024e610f42565b3480156103a357600080fd5b506103626103b2366004611ebc565b611109565b3480156103c357600080fd5b50610315611149565b3480156103d857600080fd5b506103626103e7366004611e20565b6111d3565b61017f6103fa366004611ffa565b611243565b34801561040b57600080fd5b506102c861041a366004611e20565b611318565b61020761042d366004611dd6565b611348565b34801561043e57600080fd5b5061031561044d366004611dd6565b61146b565b60008060006104638560008661160d565b9250509150601660030b82146104ca5760405162461bcd60e51b815260206004820152602160248201527f4661696c656420746f206d696e74206e6f6e2d66756e6769626c6520746f6b656044820152603760f91b60648201526084015b60405180910390fd5b806000815181106104dd576104dd612033565b6020026020010151925050505b92915050565b6040516001600160a01b038581166024830152848116604483015283166064820152608481018290526000908190819061016790630aed65f560e11b9060a4015b60408051601f198184030181529181526020820180516001600160e01b03166001600160e01b031990941693909317909252905161056f9190612049565b6000604051808303816000865af19150503d80600081146105ac576040519150601f19603f3d011682016040523d82523d6000602084013e6105b1565b606091505b5091509150816105c25760156105d6565b808060200190518101906105d6919061207c565b60030b979650505050505050565b336000908152600360205260408120805434919083906106059084906120ad565b9091555060009050610616856109e9565b905060006106248285610452565b60408051608081018252888152602081018881523392820192835260079390930b606082019081526005805460018181018355600092909252925160039093027f036b6384b5eca791c62761152d0c79bb0604c104a5fb6f4eb0703f3154bb3db081019390935593517f036b6384b5eca791c62761152d0c79bb0604c104a5fb6f4eb0703f3154bb3db183015591517f036b6384b5eca791c62761152d0c79bb0604c104a5fb6f4eb0703f3154bb3db2909101805492516001600160401b0316600160a01b026001600160e01b03199093166001600160a01b039290921691909117919091179055925050509392505050565b6000806101676001600160a01b031663618dc65e60e01b85856040516024016107419291906120c0565b60408051601f198184030181529181526020820180516001600160e01b03166001600160e01b031990941693909317909252905161077f9190612049565b6000604051808303816000865af19150503d80600081146107bc576040519150601f19603f3d011682016040523d82523d6000602084013e6107c1565b606091505b50915091507f4af4780e06fe8cb9df64b0794fa6f01399af979175bb988e35e0e57e594567bc82826040516107f79291906120ec565b60405180910390a150505050565b60606004805480602002602001604051908101604052809291908181526020016000905b828210156108835760008481526020908190206040805160608101825260038602909201805483526001808201546001600160a01b0390811685870152600290920154909116918301919091529083529092019101610829565b50505050905090565b6040805160608101825260008082526020820181905291810191909152600482815481106108bc576108bc612033565b60009182526020918290206040805160608101825260039093029091018054835260018101546001600160a01b0390811694840194909452600201549092169181019190915292915050565b600061091583338461170b565b9050601681146104ea5760405162461bcd60e51b815260206004820152602560248201527f4661696c656420746f20617070726f7665206e6f6e2d66756e676962696c65206044820152643a37b5b2b760d91b60648201526084016104c1565b60405163020604bf60e21b8152600481018290526000906001600160a01b0384169063081812fc906024015b602060405180830381865afa1580156109be573d6000803e3d6000fd5b505050506040513d601f19601f820116820180604052508101906109e29190612107565b9392505050565b60008060005b600454811015610a69578360048281548110610a0d57610a0d612033565b90600052602060002090600302016000015403610a575760048181548110610a3757610a37612033565b60009182526020909120600260039092020101546001600160a01b031691505b80610a6181612124565b9150506109ef565b5092915050565b6005546060906000906001600160401b03811115610a9057610a90611a9f565b604051908082528060200260200182016040528015610ae257816020015b604080516080810182526000808252602080830182905292820181905260608201528252600019909201910181610aae5790505b5090506000805b600554811015610bd957336001600160a01b031660058281548110610b1057610b10612033565b60009182526020909120600260039092020101546001600160a01b031603610bc75760058181548110610b4557610b45612033565b6000918252602091829020604080516080810182526003909302909101805483526001810154938301939093526002909201546001600160a01b03811692820192909252600160a01b90910460070b60608201528351849084908110610bad57610bad612033565b60200260200101819052508180610bc390612124565b9250505b80610bd181612124565b915050610ae9565b509092915050565b6040516001600160a01b038581166024830152848116604483015283166064820152608481018290526000908190819061016790639b23d3d960e01b9060a401610531565b6060816001600160a01b03166306fdde036040518163ffffffff1660e01b8152600401600060405180830381865afa158015610c66573d6000803e3d6000fd5b505050506040513d6000823e601f3d908101601f191682016040526104ea919081019061213d565b6040805160078082526101008201909252600091829190816020015b610cb2611a25565b815260200190600190039081610caa579050509050610cd460006001306117e4565b81600081518110610ce757610ce7612033565b6020026020010181905250610cff60046001306117e4565b81600181518110610d1257610d12612033565b6020026020010181905250610d2a60026001306117e4565b81600281518110610d3d57610d3d612033565b6020026020010181905250610d5560056001306117e4565b81600381518110610d6857610d68612033565b6020026020010181905250610d7f600180306117e4565b81600481518110610d9257610d92612033565b6020026020010181905250610daa60066001306117e4565b81600581518110610dbd57610dbd612033565b6020026020010181905250610dd560036001306117e4565b81600681518110610de857610de8612033565b6020026020010181905250610e5960408051610120810182526060808252602080830182905260008385018190528284018390526080840181905260a0840181905260c0840181905260e0840183905284519283018552808352908201819052928101929092529061010082015290565b8781526020810187905260608101869052306040820181905260016080830152600786900b60a083015260e08201839052600060c0830152610ec2908560408051606081018252600081526001600160a01b0393909316602084015260079190910b9082015290565b610100820152600080610ed483611819565b909250905060168214610f355760405162461bcd60e51b815260206004820152602360248201527f4661696c656420746f20637265617465206e6f6e2d66756e6769626c6520746f60448201526235b2b760e91b60648201526084016104c1565b9998505050505050505050565b606060008060005b600454811015610fb357336001600160a01b031660048281548110610f7157610f71612033565b60009182526020909120600160039092020101546001600160a01b031603610fa15781610f9d81612124565b9250505b80610fab81612124565b915050610f4a565b506000816001600160401b03811115610fce57610fce611a9f565b60405190808252806020026020018201604052801561101957816020015b6040805160608101825260008082526020808301829052928201528252600019909201910181610fec5790505b50905060005b60045481101561110157336001600160a01b03166004828154811061104657611046612033565b60009182526020909120600160039092020101546001600160a01b0316036110ef576004818154811061107b5761107b612033565b60009182526020918290206040805160608101825260039093029091018054835260018101546001600160a01b0390811694840194909452600201549092169181019190915282518390869081106110d5576110d5612033565b602002602001018190525083806110eb90612124565b9450505b806110f981612124565b91505061101f565b509392505050565b6060816001600160a01b03166395d89b416040518163ffffffff1660e01b8152600401600060405180830381865afa158015610c66573d6000803e3d6000fd5b60606005805480602002602001604051908101604052809291908181526020016000905b82821015610883576000848152602090819020604080516080810182526003860290920180548352600180820154848601526002909101546001600160a01b03811692840192909252600160a01b90910460070b6060830152908352909201910161116d565b60405163c87b56dd60e01b8152600481018290526060906001600160a01b0384169063c87b56dd90602401600060405180830381865afa15801561121b573d6000803e3d6000fd5b505050506040513d6000823e601f3d908101601f191682016040526109e2919081019061213d565b6000826001600160a01b0316630a754de66040518163ffffffff1660e01b81526004016020604051808303816000875af1158015611285573d6000803e3d6000fd5b505050506040513d601f19601f820116820180604052508101906112a991906121b3565b5060006112b88430338661193b565b9050601681146109e25760405162461bcd60e51b815260206004820152602560248201527f4661696c656420746f207472616e73666572206e6f6e2d66756e6769626c65206044820152643a37b5b2b760d91b60648201526084016104c1565b6040516331a9108f60e11b8152600481018290526000906001600160a01b03841690636352211e906024016109a1565b336000908152600360205260408120805434919083906113699084906120ad565b9250508190555060046040518060600160405280848152602001336001600160a01b031681526020016114056040518060400160405280600a815260200169486173684368616e676560b01b815250604051806040016040528060048152602001634558523160e01b8152506040518060400160405280600c81526020016b66726f6d207375727665797360a01b815250600a626acfc0610c8e565b6001600160a01b03908116909152825460018082018555600094855260209485902084516003909302019182559383015181850180546001600160a01b031990811692851692909217905560409093015160029091018054909316911617905592915050565b6005546060906000906001600160401b0381111561148b5761148b611a9f565b6040519080825280602002602001820160405280156114dd57816020015b6040805160808101825260008082526020808301829052928201819052606082015282526000199092019101816114a95790505b5090506000805b60055481101561160457336001600160a01b03166005828154811061150b5761150b612033565b60009182526020909120600260039092020101546001600160a01b03161480156115585750846005828154811061154457611544612033565b906000526020600020906003020160000154145b156115f2576005818154811061157057611570612033565b6000918252602091829020604080516080810182526003909302909101805483526001810154938301939093526002909201546001600160a01b03811692820192909252600160a01b90910460070b606082015283518490849081106115d8576115d8612033565b602002602001018190525081806115ee90612124565b9250505b806115fc81612124565b9150506114e4565b50909392505050565b60008060606000806101676001600160a01b031663e0f4059a60e01b89898960405160240161163e939291906121d0565b60408051601f198184030181529181526020820180516001600160e01b03166001600160e01b031990941693909317909252905161167c9190612049565b6000604051808303816000865af19150503d80600081146116b9576040519150601f19603f3d011682016040523d82523d6000602084013e6116be565b606091505b5091509150816116e15760408051600080825260208201909252601591906116f5565b808060200190518101906116f5919061224c565b60039290920b9a90995090975095505050505050565b604080516001600160a01b03858116602483015284166044820152606480820184905282518083039091018152608490910182526020810180516001600160e01b03166307336aaf60e41b179052905160009182918291610167916117709190612049565b6000604051808303816000865af19150503d80600081146117ad576040519150601f19603f3d011682016040523d82523d6000602084013e6117b2565b606091505b5091509150816117c35760156117d7565b808060200190518101906117d7919061207c565b60030b9695505050505050565b6117ec611a25565b604051806040016040528061180086611983565b815260200161180f85856119c2565b9052949350505050565b600080828061010001516000015160070b600014801561184357506101008101516040015160070b155b15611859576101008101516276a7006040909101525b6000806101676001600160a01b03163463ea83f29360e01b8860405160240161188291906123c1565b60408051601f198184030181529181526020820180516001600160e01b03166001600160e01b03199094169390931790925290516118c09190612049565b60006040518083038185875af1925050503d80600081146118fd576040519150601f19603f3d011682016040523d82523d6000602084013e611902565b606091505b5091509150816119155760156000611929565b8080602001905181019061192991906124cd565b60039190910b97909650945050505050565b6040516001600160a01b038581166024830152848116604483015283166064820152600782900b60848201526000908190819061016790635cfc901160e01b9060a401610531565b60006001600083600681111561199b5761199b6124f9565b60068111156119ac576119ac6124f9565b8152602001908152602001600020549050919050565b6119ca611a44565b60018360048111156119de576119de6124f9565b036119f7576001600160a01b03821660208201526104ea565b6004836004811115611a0b57611a0b6124f9565b036104ea576001600160a01b038216608082015292915050565b604051806040016040528060008152602001611a3f611a44565b905290565b6040518060a0016040528060001515815260200160006001600160a01b03168152602001606081526020016060815260200160006001600160a01b031681525090565b6001600160a01b0381168114611a9c57600080fd5b50565b634e487b7160e01b600052604160045260246000fd5b604051601f8201601f191681016001600160401b0381118282101715611add57611add611a9f565b604052919050565b60006001600160401b03821115611afe57611afe611a9f565b5060051b60200190565b60006001600160401b03821115611b2157611b21611a9f565b50601f01601f191660200190565b600082601f830112611b4057600080fd5b8135611b53611b4e82611b08565b611ab5565b818152846020838601011115611b6857600080fd5b816020850160208301376000918101602001919091529392505050565b600082601f830112611b9657600080fd5b81356020611ba6611b4e83611ae5565b82815260059290921b84018101918181019086841115611bc557600080fd5b8286015b84811015611c045780356001600160401b03811115611be85760008081fd5b611bf68986838b0101611b2f565b845250918301918301611bc9565b509695505050505050565b60008060408385031215611c2257600080fd5b8235611c2d81611a87565b915060208301356001600160401b03811115611c4857600080fd5b611c5485828601611b85565b9150509250929050565b60008060008060808587031215611c7457600080fd5b8435611c7f81611a87565b93506020850135611c8f81611a87565b92506040850135611c9f81611a87565b9396929550929360600135925050565b60008060408385031215611cc257600080fd5b50508035926020909101359150565b600080600060608486031215611ce657600080fd5b833592506020840135915060408401356001600160401b03811115611d0a57600080fd5b611d1686828701611b85565b9150509250925092565b60008060408385031215611d3357600080fd5b8235611d3e81611a87565b915060208301356001600160401b03811115611d5957600080fd5b611c5485828601611b2f565b6020808252825182820181905260009190848201906040850190845b81811015611dca57611db7838551805182526020808201516001600160a01b039081169184019190915260409182015116910152565b9284019260609290920191600101611d81565b50909695505050505050565b600060208284031215611de857600080fd5b5035919050565b606081016104ea8284805182526020808201516001600160a01b039081169184019190915260409182015116910152565b60008060408385031215611e3357600080fd5b8235611e3e81611a87565b946020939093013593505050565b602080825282518282018190526000919060409081850190868401855b82811015611eaf578151805185528681015187860152858101516001600160a01b03168686015260609081015160070b9085015260809093019290850190600101611e69565b5091979650505050505050565b600060208284031215611ece57600080fd5b81356109e281611a87565b60005b83811015611ef4578181015183820152602001611edc565b50506000910152565b60008151808452611f15816020860160208601611ed9565b601f01601f19169290920160200192915050565b6020815260006109e26020830184611efd565b8060070b8114611a9c57600080fd5b600080600080600060a08688031215611f6357600080fd5b85356001600160401b0380821115611f7a57600080fd5b611f8689838a01611b2f565b96506020880135915080821115611f9c57600080fd5b611fa889838a01611b2f565b95506040880135915080821115611fbe57600080fd5b50611fcb88828901611b2f565b9350506060860135611fdc81611f3c565b91506080860135611fec81611f3c565b809150509295509295909350565b6000806040838503121561200d57600080fd5b823561201881611a87565b9150602083013561202881611f3c565b809150509250929050565b634e487b7160e01b600052603260045260246000fd5b6000825161205b818460208701611ed9565b9190910192915050565b8051600381900b811461207757600080fd5b919050565b60006020828403121561208e57600080fd5b6109e282612065565b634e487b7160e01b600052601160045260246000fd5b808201808211156104ea576104ea612097565b6001600160a01b03831681526040602082018190526000906120e490830184611efd565b949350505050565b82151581526040602082015260006120e46040830184611efd565b60006020828403121561211957600080fd5b81516109e281611a87565b60006001820161213657612136612097565b5060010190565b60006020828403121561214f57600080fd5b81516001600160401b0381111561216557600080fd5b8201601f8101841361217657600080fd5b8051612184611b4e82611b08565b81815285602083850101111561219957600080fd5b6121aa826020830160208601611ed9565b95945050505050565b6000602082840312156121c557600080fd5b81516109e281611f3c565b60006060820160018060a01b038616835260208560070b818501526060604085015281855180845260808601915060808160051b870101935082870160005b8281101561223d57607f1988870301845261222b868351611efd565b9550928401929084019060010161220f565b50939998505050505050505050565b60008060006060848603121561226157600080fd5b61226a84612065565b925060208085015161227b81611f3c565b60408601519093506001600160401b0381111561229757600080fd5b8501601f810187136122a857600080fd5b80516122b6611b4e82611ae5565b81815260059190911b820183019083810190898311156122d557600080fd5b928401925b828410156122fc5783516122ed81611f3c565b825292840192908401906122da565b80955050505050509250925092565b600081518084526020808501808196508360051b8101915082860160005b85811015611eaf57828403895281516040815186528682015191508087870152815115158187015286820151606060018060a01b03808316828a015283850151935060a09250608083818b015261238360e08b0186611efd565b928601518a8403603f1901858c015292945061239f8584611efd565b9501511660c09890980197909752505098850198935090840190600101612329565b602081526000825161016060208401526123df610180840182611efd565b90506020840151601f19808584030160408601526123fd8383611efd565b92506040860151915061241b60608601836001600160a01b03169052565b60608601519150808584030160808601526124368383611efd565b92506080860151915061244d60a086018315159052565b60a0860151915061246360c086018360070b9052565b60c086015180151560e0870152915060e0860151915061010081868503018187015261248f848461230b565b908701518051600790810b61012089015260208201516001600160a01b03166101408901526040820151900b61016088015290935091506111019050565b600080604083850312156124e057600080fd5b6124e983612065565b9150602083015161202881611a87565b634e487b7160e01b600052602160045260246000fdfea2646970667358221220308ace7db8749fbc10b95d5f58c42e4e3f11abb67be74e4abe5cedfffeb6c72564736f6c63430008130033",
    "sourcePath": "/home/drleo/Projects/hackathons/hedera/smart-contracts/contracts/Surveys.sol",
    "compiler": {
        "name": "solc",
        "version": "0.8.19+commit.7dd6d404"
    },
    "functionHashes": {
        "approveNft(address,uint256)": "899b7898",
        "createHash(bytes32,bytes32)": "2b82b9a9",
        "createNft(string,string,string,int64,int64)": "b6c907a6",
        "getAnswerForSurvey(bytes32)": "ea03b4d7",
        "getAnswers()": "c793fcf9",
        "getApprovedNft(address,uint256)": "8bf3a32e",
        "getAuthorSurveys()": "c2e298c1",
        "getBalance()": "12065fe0",
        "getNftAddressForSurveyHash(bytes32)": "94496cba",
        "getSurvey(uint256)": "89670e15",
        "getSurveys()": "7dec8296",
        "getUserAnswers()": "9524d316",
        "mintNft(address,bytes[])": "0a284cb6",
        "nameOfNft(address)": "a6cdbdcd",
        "ownerOfNft(address,uint256)": "ce25e972",
        "redirectForToken(address,bytes)": "618dc65e",
        "setAnswer(bytes32,bytes32,bytes[])": "30f5ed82",
        "setSurvey(bytes32)": "ce5cb1c6",
        "symbolOfNft(address)": "c4b5fc27",
        "tokenURIOfNft(address,uint256)": "cb417cc2",
        "transferFrom(address,address,address,uint256)": "15dacbea",
        "transferFromNFT(address,address,address,uint256)": "9b23d3d9",
        "transferNft(address,int64)": "cd7c253e"
    },
    "gasEstimates": {
        "creation": {
            "codeDepositCost": "1908200",
            "executionCost": "infinite",
            "totalCost": "infinite"
        },
        "external": {
            "approveNft(address,uint256)": "infinite",
            "createHash(bytes32,bytes32)": "544",
            "createNft(string,string,string,int64,int64)": "infinite",
            "getAnswerForSurvey(bytes32)": "infinite",
            "getAnswers()": "infinite",
            "getApprovedNft(address,uint256)": "infinite",
            "getAuthorSurveys()": "infinite",
            "getBalance()": "229",
            "getNftAddressForSurveyHash(bytes32)": "infinite",
            "getSurvey(uint256)": "9228",
            "getSurveys()": "infinite",
            "getUserAnswers()": "infinite",
            "mintNft(address,bytes[])": "infinite",
            "nameOfNft(address)": "infinite",
            "ownerOfNft(address,uint256)": "infinite",
            "redirectForToken(address,bytes)": "infinite",
            "setAnswer(bytes32,bytes32,bytes[])": "infinite",
            "setSurvey(bytes32)": "infinite",
            "symbolOfNft(address)": "infinite",
            "tokenURIOfNft(address,uint256)": "infinite",
            "transferFrom(address,address,address,uint256)": "infinite",
            "transferFromNFT(address,address,address,uint256)": "infinite",
            "transferNft(address,int64)": "infinite"
        },
        "internal": {
            "surveyExist(bytes32)": "infinite"
        }
    }
}